{"abi":[{"type":"constructor","inputs":[],"stateMutability":"nonpayable"},{"type":"function","name":"DEFAULT_ADMIN_ROLE","inputs":[],"outputs":[{"name":"","type":"bytes32","internalType":"bytes32"}],"stateMutability":"view"},{"type":"function","name":"MINT_ROLE","inputs":[],"outputs":[{"name":"","type":"bytes32","internalType":"bytes32"}],"stateMutability":"view"},{"type":"function","name":"OPERATOR_ROLE","inputs":[],"outputs":[{"name":"","type":"bytes32","internalType":"bytes32"}],"stateMutability":"view"},{"type":"function","name":"UPGRADE_INTERFACE_VERSION","inputs":[],"outputs":[{"name":"","type":"string","internalType":"string"}],"stateMutability":"view"},{"type":"function","name":"USDT","inputs":[],"outputs":[{"name":"","type":"address","internalType":"address"}],"stateMutability":"view"},{"type":"function","name":"VUSDT","inputs":[],"outputs":[{"name":"","type":"address","internalType":"contract VBep20Delegator"}],"stateMutability":"view"},{"type":"function","name":"batchAddHolder","inputs":[{"name":"size","type":"uint256","internalType":"uint256"}],"outputs":[],"stateMutability":"nonpayable"},{"type":"function","name":"getHolder","inputs":[{"name":"index","type":"uint256","internalType":"uint256"}],"outputs":[{"name":"","type":"address","internalType":"address"}],"stateMutability":"view"},{"type":"function","name":"getHolders","inputs":[],"outputs":[{"name":"","type":"address[]","internalType":"address[]"}],"stateMutability":"view"},{"type":"function","name":"getHoldersCount","inputs":[],"outputs":[{"name":"","type":"uint256","internalType":"uint256"}],"stateMutability":"view"},{"type":"function","name":"getRoleAdmin","inputs":[{"name":"role","type":"bytes32","internalType":"bytes32"}],"outputs":[{"name":"","type":"bytes32","internalType":"bytes32"}],"stateMutability":"view"},{"type":"function","name":"grantRole","inputs":[{"name":"role","type":"bytes32","internalType":"bytes32"},{"name":"account","type":"address","internalType":"address"}],"outputs":[],"stateMutability":"nonpayable"},{"type":"function","name":"hasRole","inputs":[{"name":"role","type":"bytes32","internalType":"bytes32"},{"name":"account","type":"address","internalType":"address"}],"outputs":[{"name":"","type":"bool","internalType":"bool"}],"stateMutability":"view"},{"type":"function","name":"holders","inputs":[{"name":"","type":"uint256","internalType":"uint256"}],"outputs":[{"name":"","type":"address","internalType":"address"}],"stateMutability":"view"},{"type":"function","name":"initialize","inputs":[{"name":"_usdt","type":"address","internalType":"address"},{"name":"_vusdt","type":"address","internalType":"address"}],"outputs":[],"stateMutability":"nonpayable"},{"type":"function","name":"mint","inputs":[{"name":"poolId","type":"uint256","internalType":"uint256"},{"name":"mintAmount","type":"uint256","internalType":"uint256"}],"outputs":[],"stateMutability":"nonpayable"},{"type":"function","name":"mint","inputs":[{"name":"holder","type":"address","internalType":"address"},{"name":"mintAmount","type":"uint256","internalType":"uint256"}],"outputs":[],"stateMutability":"nonpayable"},{"type":"function","name":"mint","inputs":[{"name":"poolId","type":"uint256","internalType":"uint256"},{"name":"mintAmount","type":"uint256","internalType":"uint256"},{"name":"from","type":"address","internalType":"address"}],"outputs":[],"stateMutability":"nonpayable"},{"type":"function","name":"proxiableUUID","inputs":[],"outputs":[{"name":"","type":"bytes32","internalType":"bytes32"}],"stateMutability":"view"},{"type":"function","name":"redeem","inputs":[{"name":"redeemAmount","type":"uint256","internalType":"uint256"}],"outputs":[],"stateMutability":"nonpayable"},{"type":"function","name":"redeemUnderlying","inputs":[{"name":"redeemAmount","type":"uint256","internalType":"uint256"}],"outputs":[],"stateMutability":"nonpayable"},{"type":"function","name":"renounceRole","inputs":[{"name":"role","type":"bytes32","internalType":"bytes32"},{"name":"callerConfirmation","type":"address","internalType":"address"}],"outputs":[],"stateMutability":"nonpayable"},{"type":"function","name":"revokeRole","inputs":[{"name":"role","type":"bytes32","internalType":"bytes32"},{"name":"account","type":"address","internalType":"address"}],"outputs":[],"stateMutability":"nonpayable"},{"type":"function","name":"setHolders","inputs":[{"name":"_holders","type":"address[]","internalType":"address[]"}],"outputs":[],"stateMutability":"nonpayable"},{"type":"function","name":"setTokenId","inputs":[{"name":"_tokenId","type":"uint256","internalType":"uint256"}],"outputs":[],"stateMutability":"nonpayable"},{"type":"function","name":"supportsInterface","inputs":[{"name":"interfaceId","type":"bytes4","internalType":"bytes4"}],"outputs":[{"name":"","type":"bool","internalType":"bool"}],"stateMutability":"view"},{"type":"function","name":"tokenId","inputs":[],"outputs":[{"name":"","type":"uint256","internalType":"uint256"}],"stateMutability":"view"},{"type":"function","name":"upgradeToAndCall","inputs":[{"name":"newImplementation","type":"address","internalType":"address"},{"name":"data","type":"bytes","internalType":"bytes"}],"outputs":[],"stateMutability":"payable"},{"type":"event","name":"HoldersSet","inputs":[{"name":"holders","type":"address[]","indexed":false,"internalType":"address[]"}],"anonymous":false},{"type":"event","name":"Initialized","inputs":[{"name":"version","type":"uint64","indexed":false,"internalType":"uint64"}],"anonymous":false},{"type":"event","name":"Minted","inputs":[{"name":"holder","type":"address","indexed":true,"internalType":"address"},{"name":"amount","type":"uint256","indexed":false,"internalType":"uint256"},{"name":"poolId","type":"uint256","indexed":false,"internalType":"uint256"}],"anonymous":false},{"type":"event","name":"Redeemed","inputs":[{"name":"holder","type":"address","indexed":true,"internalType":"address"},{"name":"amount","type":"uint256","indexed":false,"internalType":"uint256"}],"anonymous":false},{"type":"event","name":"RedeemedUnderlying","inputs":[{"name":"holder","type":"address","indexed":true,"internalType":"address"},{"name":"amount","type":"uint256","indexed":false,"internalType":"uint256"}],"anonymous":false},{"type":"event","name":"RoleAdminChanged","inputs":[{"name":"role","type":"bytes32","indexed":true,"internalType":"bytes32"},{"name":"previousAdminRole","type":"bytes32","indexed":true,"internalType":"bytes32"},{"name":"newAdminRole","type":"bytes32","indexed":true,"internalType":"bytes32"}],"anonymous":false},{"type":"event","name":"RoleGranted","inputs":[{"name":"role","type":"bytes32","indexed":true,"internalType":"bytes32"},{"name":"account","type":"address","indexed":true,"internalType":"address"},{"name":"sender","type":"address","indexed":true,"internalType":"address"}],"anonymous":false},{"type":"event","name":"RoleRevoked","inputs":[{"name":"role","type":"bytes32","indexed":true,"internalType":"bytes32"},{"name":"account","type":"address","indexed":true,"internalType":"address"},{"name":"sender","type":"address","indexed":true,"internalType":"address"}],"anonymous":false},{"type":"event","name":"TokenIdSet","inputs":[{"name":"tokenId","type":"uint256","indexed":false,"internalType":"uint256"}],"anonymous":false},{"type":"event","name":"Upgraded","inputs":[{"name":"implementation","type":"address","indexed":true,"internalType":"address"}],"anonymous":false},{"type":"error","name":"AccessControlBadConfirmation","inputs":[]},{"type":"error","name":"AccessControlUnauthorizedAccount","inputs":[{"name":"account","type":"address","internalType":"address"},{"name":"neededRole","type":"bytes32","internalType":"bytes32"}]},{"type":"error","name":"AddressEmptyCode","inputs":[{"name":"target","type":"address","internalType":"address"}]},{"type":"error","name":"ERC1967InvalidImplementation","inputs":[{"name":"implementation","type":"address","internalType":"address"}]},{"type":"error","name":"ERC1967NonPayable","inputs":[]},{"type":"error","name":"FailedCall","inputs":[]},{"type":"error","name":"InvalidInitialization","inputs":[]},{"type":"error","name":"NotInitializing","inputs":[]},{"type":"error","name":"T","inputs":[]},{"type":"error","name":"UUPSUnauthorizedCallContext","inputs":[]},{"type":"error","name":"UUPSUnsupportedProxiableUUID","inputs":[{"name":"slot","type":"bytes32","internalType":"bytes32"}]}],"bytecode":{"object":"0x60a060405230608052348015610013575f80fd5b5061001c610021565b6100d3565b7ff0c57e16840df040f15088dc2f81fe391c3923bec73e23a9662efc9c229c6a00805468010000000000000000900460ff16156100715760405163f92ee8a960e01b815260040160405180910390fd5b80546001600160401b03908116146100d05780546001600160401b0319166001600160401b0390811782556040519081527fc7f505b2f371ae2175ee4913f4499e1f2633a7b5936321eed1cdaeb6115181d29060200160405180910390a15b50565b608051611ba16100f95f395f81816112c2015281816112eb015261142c0152611ba15ff3fe6080604052600436106101af575f3560e01c806373889f4a116100e7578063d547741f11610087578063e7d3fe6b11610062578063e7d3fe6b146104bf578063e8a96b46146104de578063e9a9c850146104fd578063f5b541a61461051d575f80fd5b8063d547741f14610462578063db006a7514610481578063dbe2316f146104a0575f80fd5b8063a217fddf116100c2578063a217fddf146103d5578063ad3cb1cc146103e8578063c54e44eb14610425578063c929ccf314610443575f80fd5b806373889f4a14610383578063852a12e31461039757806391d14854146103b6575f80fd5b806336568abe116101525780634f1ef2861161012d5780634f1ef2861461031c578063512bb6cd1461032f57806352d1902d1461034e5780635fe8e7cc14610362575f80fd5b806336568abe146102bf57806340c10f19146102de578063485cc955146102fd575f80fd5b80631b2ef1ca1161018d5780631b2ef1ca14610241578063248a9ca3146102625780632a11ced0146102815780632f2ff15d146102a0575f80fd5b806301ffc9a7146101b357806302369226146101e757806317d70f7c1461021e575b5f80fd5b3480156101be575f80fd5b506101d26101cd36600461171b565b61053d565b60405190151581526020015b60405180910390f35b3480156101f2575f80fd5b50600154610206906001600160a01b031681565b6040516001600160a01b0390911681526020016101de565b348015610229575f80fd5b5061023360025481565b6040519081526020016101de565b34801561024c575f80fd5b5061026061025b366004611742565b61054d565b005b34801561026d575f80fd5b5061023361027c366004611762565b610736565b34801561028c575f80fd5b5061020661029b366004611762565b610756565b3480156102ab575f80fd5b506102606102ba366004611794565b61077e565b3480156102ca575f80fd5b506102606102d9366004611794565b6107a0565b3480156102e9575f80fd5b506102606102f83660046117be565b6107d8565b348015610308575f80fd5b506102606103173660046117e6565b6109b8565b61026061032a366004611853565b610b1f565b34801561033a575f80fd5b506102606103493660046118f3565b610b3e565b348015610359575f80fd5b50610233610b97565b34801561036d575f80fd5b50610376610bb2565b6040516101de919061199b565b34801561038e575f80fd5b50600354610233565b3480156103a2575f80fd5b506102606103b1366004611762565b610c12565b3480156103c1575f80fd5b506101d26103d0366004611794565b610cfd565b3480156103e0575f80fd5b506102335f81565b3480156103f3575f80fd5b50610418604051806040016040528060058152602001640352e302e360dc1b81525081565b6040516101de9190611a09565b348015610430575f80fd5b505f54610206906001600160a01b031681565b34801561044e575f80fd5b5061026061045d366004611762565b610d33565b34801561046d575f80fd5b5061026061047c366004611794565b610d72565b34801561048c575f80fd5b5061026061049b366004611762565b610d8e565b3480156104ab575f80fd5b506102606104ba366004611762565b610e72565b3480156104ca575f80fd5b506102606104d9366004611a3b565b610ec9565b3480156104e9575f80fd5b506102066104f8366004611762565b6110b4565b348015610508575f80fd5b506102335f80516020611b0c83398151915281565b348015610528575f80fd5b506102335f80516020611b2c83398151915281565b5f6105478261112a565b92915050565b6105645f80516020611b0c83398151915233610cfd565b61059b57335f80516020611b0c83398151915260405163e2517d3f60e01b8152600401610592929190611a6d565b60405180910390fd5b5f546040516323b872dd60e01b8152336004820152306024820152604481018390526001600160a01b03909116906323b872dd906064016020604051808303815f875af11580156105ee573d5f803e3d5ffd5b505050506040513d601f19601f820116820180604052508101906106129190611a86565b505f5460015460405163095ea7b360e01b81526001600160a01b039283169263095ea7b392610648929116908590600401611a6d565b6020604051808303815f875af1158015610664573d5f803e3d5ffd5b505050506040513d601f19601f820116820180604052508101906106889190611a86565b5060015460405163140e25ad60e31b8152600481018390526001600160a01b039091169063a0712d68906024016020604051808303815f875af11580156106d1573d5f803e3d5ffd5b505050506040513d601f19601f820116820180604052508101906106f59190611aa5565b50604080518281526020810184905233917f25b428dfde728ccfaddad7e29e4ac23c24ed7fd1a6e3e3f91894a9a073f5dfff91015b60405180910390a25050565b5f9081525f80516020611b4c833981519152602052604090206001015490565b60038181548110610765575f80fd5b5f918252602090912001546001600160a01b0316905081565b61078782610736565b6107908161115e565b61079a838361116b565b50505050565b6001600160a01b03811633146107c95760405163334bd91960e11b815260040160405180910390fd5b6107d3828261120c565b505050565b6107ef5f80516020611b0c83398151915233610cfd565b61081d57335f80516020611b0c83398151915260405163e2517d3f60e01b8152600401610592929190611a6d565b5f546040516323b872dd60e01b8152336004820152306024820152604481018390526001600160a01b03909116906323b872dd906064016020604051808303815f875af1158015610870573d5f803e3d5ffd5b505050506040513d601f19601f820116820180604052508101906108949190611a86565b505f5460015460405163095ea7b360e01b81526001600160a01b039283169263095ea7b3926108ca929116908590600401611a6d565b6020604051808303815f875af11580156108e6573d5f803e3d5ffd5b505050506040513d601f19601f8201168201806040525081019061090a9190611a86565b5060015460405163140e25ad60e31b8152600481018390526001600160a01b039091169063a0712d68906024016020604051808303815f875af1158015610953573d5f803e3d5ffd5b505050506040513d601f19601f820116820180604052508101906109779190611aa5565b50604080518281525f60208201526001600160a01b038416917f25b428dfde728ccfaddad7e29e4ac23c24ed7fd1a6e3e3f91894a9a073f5dfff910161072a565b5f6109c1611285565b805490915060ff600160401b820416159067ffffffffffffffff165f811580156109e85750825b90505f8267ffffffffffffffff166001148015610a045750303b155b905081158015610a12575080155b15610a305760405163f92ee8a960e01b815260040160405180910390fd5b845467ffffffffffffffff191660011785558315610a5a57845460ff60401b1916600160401b1785555b610a626112ad565b610a6a6112ad565b5f80546001600160a01b03808a166001600160a01b031992831617835560018054918a1691909216179055610a9f903361116b565b50610ab75f80516020611b0c8339815191523361116b565b50610acf5f80516020611b2c8339815191523361116b565b508315610b1657845460ff60401b19168555604051600181527fc7f505b2f371ae2175ee4913f4499e1f2633a7b5936321eed1cdaeb6115181d29060200160405180910390a15b50505050505050565b610b276112b7565b610b308261135b565b610b3a8282611365565b5050565b5f610b488161115e565b8151610b5b9060039060208501906116a4565b507faddb501fda44110641fd1ceeaad05304b4ebf19b2c5f962f0f46b33ce3abe8c082604051610b8b919061199b565b60405180910390a15050565b5f610ba0611421565b505f80516020611aec83398151915290565b60606003805480602002602001604051908101604052809291908181526020018280548015610c0857602002820191905f5260205f20905b81546001600160a01b03168152600190910190602001808311610bea575b5050505050905090565b610c295f80516020611b2c83398151915233610cfd565b610c5757335f80516020611b2c83398151915260405163e2517d3f60e01b8152600401610592929190611a6d565b60015460405163852a12e360e01b8152600481018390526001600160a01b039091169063852a12e3906024016020604051808303815f875af1158015610c9f573d5f803e3d5ffd5b505050506040513d601f19601f82011682018060405250810190610cc39190611aa5565b5060405181815233907fea4148e170210db9709cbb875189acd745b8198d73145d91909f3a3ebdabc18f906020015b60405180910390a250565b5f9182525f80516020611b4c833981519152602090815260408084206001600160a01b0393909316845291905290205460ff1690565b5f610d3d8161115e565b60028290556040518281527fddad5c27de13414dd4cdb1f1c0d002e14dcc7455a0f6e8621fdbd4991e5644f990602001610b8b565b610d7b82610736565b610d848161115e565b61079a838361120c565b610da55f80516020611b2c83398151915233610cfd565b610dd357335f80516020611b2c83398151915260405163e2517d3f60e01b8152600401610592929190611a6d565b60015460405163db006a7560e01b8152600481018390526001600160a01b039091169063db006a75906024016020604051808303815f875af1158015610e1b573d5f803e3d5ffd5b505050506040513d601f19601f82011682018060405250810190610e3f9190611aa5565b5060405181815233907f4896181ff8f4543cc00db9fe9b6fb7e6f032b7eb772c72ab1ec1b4d2e03b936990602001610cf2565b610e895f80516020611b2c83398151915233610cfd565b610eb757335f80516020611b2c83398151915260405163e2517d3f60e01b8152600401610592929190611a6d565b5f5b81811015610b3a57600101610eb9565b610ee05f80516020611b0c83398151915233610cfd565b610f0e57335f80516020611b0c83398151915260405163e2517d3f60e01b8152600401610592929190611a6d565b5f546040516323b872dd60e01b81526001600160a01b03838116600483015230602483015260448201859052909116906323b872dd906064016020604051808303815f875af1158015610f63573d5f803e3d5ffd5b505050506040513d601f19601f82011682018060405250810190610f879190611a86565b505f5460015460405163095ea7b360e01b81526001600160a01b039283169263095ea7b392610fbd929116908690600401611a6d565b6020604051808303815f875af1158015610fd9573d5f803e3d5ffd5b505050506040513d601f19601f82011682018060405250810190610ffd9190611a86565b5060015460405163140e25ad60e31b8152600481018490526001600160a01b039091169063a0712d68906024016020604051808303815f875af1158015611046573d5f803e3d5ffd5b505050506040513d601f19601f8201168201806040525081019061106a9190611aa5565b5060408051838152602081018590526001600160a01b038316917f25b428dfde728ccfaddad7e29e4ac23c24ed7fd1a6e3e3f91894a9a073f5dfff910160405180910390a2505050565b6003545f9082106110fd5760405162461bcd60e51b8152602060048201526013602482015272496e646578206f7574206f6620626f756e647360681b6044820152606401610592565b6003828154811061111057611110611abc565b5f918252602090912001546001600160a01b031692915050565b5f6001600160e01b03198216637965db0b60e01b148061054757506301ffc9a760e01b6001600160e01b0319831614610547565b611168813361146a565b50565b5f5f80516020611b4c8339815191526111848484610cfd565b611203575f848152602082815260408083206001600160a01b03871684529091529020805460ff191660011790556111b93390565b6001600160a01b0316836001600160a01b0316857f2f8788117e7eff1d82e926ec794901d17c78024a50270940304540a733656f0d60405160405180910390a46001915050610547565b5f915050610547565b5f5f80516020611b4c8339815191526112258484610cfd565b15611203575f848152602082815260408083206001600160a01b0387168085529252808320805460ff1916905551339287917ff6391f5c32d9c69d2a47ea670b442974b53935d1edc7fd64eb21e047a839171b9190a46001915050610547565b5f807ff0c57e16840df040f15088dc2f81fe391c3923bec73e23a9662efc9c229c6a00610547565b6112b5611495565b565b306001600160a01b037f000000000000000000000000000000000000000000000000000000000000000016148061133d57507f00000000000000000000000000000000000000000000000000000000000000006001600160a01b03166113315f80516020611aec833981519152546001600160a01b031690565b6001600160a01b031614155b156112b55760405163703e46dd60e11b815260040160405180910390fd5b5f610b3a8161115e565b816001600160a01b03166352d1902d6040518163ffffffff1660e01b8152600401602060405180830381865afa9250505080156113bf575060408051601f3d908101601f191682019092526113bc91810190611aa5565b60015b6113e757604051634c9c8ce360e01b81526001600160a01b0383166004820152602401610592565b5f80516020611aec833981519152811461141757604051632a87526960e21b815260048101829052602401610592565b6107d383836114ba565b306001600160a01b037f000000000000000000000000000000000000000000000000000000000000000016146112b55760405163703e46dd60e11b815260040160405180910390fd5b6114748282610cfd565b610b3a57808260405163e2517d3f60e01b8152600401610592929190611a6d565b61149d61150f565b6112b557604051631afcd79f60e31b815260040160405180910390fd5b6114c382611528565b6040516001600160a01b038316907fbc7cd75a20ee27fd9adebab32041f755214dbc6bffa90cc0225b39da2e5c2d3b905f90a2805115611507576107d3828261158b565b610b3a6115fd565b5f611518611285565b54600160401b900460ff16919050565b806001600160a01b03163b5f0361155d57604051634c9c8ce360e01b81526001600160a01b0382166004820152602401610592565b5f80516020611aec83398151915280546001600160a01b0319166001600160a01b0392909216919091179055565b60605f80846001600160a01b0316846040516115a79190611ad0565b5f60405180830381855af49150503d805f81146115df576040519150601f19603f3d011682016040523d82523d5f602084013e6115e4565b606091505b50915091506115f485838361161c565b95945050505050565b34156112b55760405163b398979f60e01b815260040160405180910390fd5b6060826116315761162c8261167b565b611674565b815115801561164857506001600160a01b0384163b155b1561167157604051639996b31560e01b81526001600160a01b0385166004820152602401610592565b50805b9392505050565b80511561168b5780518082602001fd5b60405163d6bda27560e01b815260040160405180910390fd5b828054828255905f5260205f209081019282156116f7579160200282015b828111156116f757825182546001600160a01b0319166001600160a01b039091161782556020909201916001909101906116c2565b50611703929150611707565b5090565b5b80821115611703575f8155600101611708565b5f6020828403121561172b575f80fd5b81356001600160e01b031981168114611674575f80fd5b5f8060408385031215611753575f80fd5b50508035926020909101359150565b5f60208284031215611772575f80fd5b5035919050565b80356001600160a01b038116811461178f575f80fd5b919050565b5f80604083850312156117a5575f80fd5b823591506117b560208401611779565b90509250929050565b5f80604083850312156117cf575f80fd5b6117d883611779565b946020939093013593505050565b5f80604083850312156117f7575f80fd5b61180083611779565b91506117b560208401611779565b634e487b7160e01b5f52604160045260245ffd5b604051601f8201601f1916810167ffffffffffffffff8111828210171561184b5761184b61180e565b604052919050565b5f8060408385031215611864575f80fd5b61186d83611779565b915060208084013567ffffffffffffffff8082111561188a575f80fd5b818601915086601f83011261189d575f80fd5b8135818111156118af576118af61180e565b6118c1601f8201601f19168501611822565b915080825287848285010111156118d6575f80fd5b80848401858401375f848284010152508093505050509250929050565b5f6020808385031215611904575f80fd5b823567ffffffffffffffff8082111561191b575f80fd5b818501915085601f83011261192e575f80fd5b8135818111156119405761194061180e565b8060051b9150611951848301611822565b818152918301840191848101908884111561196a575f80fd5b938501935b8385101561198f5761198085611779565b8252938501939085019061196f565b98975050505050505050565b602080825282518282018190525f9190848201906040850190845b818110156119db5783516001600160a01b0316835292840192918401916001016119b6565b50909695505050505050565b5f5b83811015611a015781810151838201526020016119e9565b50505f910152565b602081525f8251806020840152611a278160408501602087016119e7565b601f01601f19169190910160400192915050565b5f805f60608486031215611a4d575f80fd5b8335925060208401359150611a6460408501611779565b90509250925092565b6001600160a01b03929092168252602082015260400190565b5f60208284031215611a96575f80fd5b81518015158114611674575f80fd5b5f60208284031215611ab5575f80fd5b5051919050565b634e487b7160e01b5f52603260045260245ffd5b5f8251611ae18184602087016119e7565b919091019291505056fe360894a13ba1a3210667c828492db98dca3e2076cc3735a920a3ca505d382bbc154c00819833dac601ee5ddded6fda79d9d8b506b911b3dbd54cdb95fe6c368697667070c54ef182b0f5858b034beac1b6f3089aa2d3188bb1e8929f4fa9b92902dd7bc7dec4dceedda775e58dd541e08a116c6c53815c0bd028192f7b626800a26469706673582212203be309c22d5a151d99af48ef40a7545865e5dea7c9cc46b15066f186f8c1aeda64736f6c63430008160033","linkReferences":{}},"methodIdentifiers":{"DEFAULT_ADMIN_ROLE()":"a217fddf","MINT_ROLE()":"e9a9c850","OPERATOR_ROLE()":"f5b541a6","UPGRADE_INTERFACE_VERSION()":"ad3cb1cc","USDT()":"c54e44eb","VUSDT()":"02369226","batchAddHolder(uint256)":"dbe2316f","getHolder(uint256)":"e8a96b46","getHolders()":"5fe8e7cc","getHoldersCount()":"73889f4a","getRoleAdmin(bytes32)":"248a9ca3","grantRole(bytes32,address)":"2f2ff15d","hasRole(bytes32,address)":"91d14854","holders(uint256)":"2a11ced0","initialize(address,address)":"485cc955","mint(address,uint256)":"40c10f19","mint(uint256,uint256)":"1b2ef1ca","mint(uint256,uint256,address)":"e7d3fe6b","proxiableUUID()":"52d1902d","redeem(uint256)":"db006a75","redeemUnderlying(uint256)":"852a12e3","renounceRole(bytes32,address)":"36568abe","revokeRole(bytes32,address)":"d547741f","setHolders(address[])":"512bb6cd","setTokenId(uint256)":"c929ccf3","supportsInterface(bytes4)":"01ffc9a7","tokenId()":"17d70f7c","upgradeToAndCall(address,bytes)":"4f1ef286"},"id":37}